{
  "contractName": "Marketplace",
  "abi": [
    {
      "inputs": [
        {
          "name": "token",
          "type": "address"
        }
      ],
      "payable": false,
      "stateMutability": "nonpayable",
      "type": "constructor"
    },
    {
      "payable": true,
      "stateMutability": "payable",
      "type": "fallback"
    },
    {
      "constant": false,
      "inputs": [
        {
          "name": "tokenId",
          "type": "uint256"
        }
      ],
      "name": "buyToken",
      "outputs": [],
      "payable": true,
      "stateMutability": "payable",
      "type": "function"
    },
    {
      "constant": false,
      "inputs": [
        {
          "name": "_operator",
          "type": "address"
        },
        {
          "name": "_from",
          "type": "address"
        },
        {
          "name": "_id",
          "type": "uint256"
        },
        {
          "name": "_value",
          "type": "uint256"
        },
        {
          "name": "_data",
          "type": "bytes"
        }
      ],
      "name": "onERC1155Received",
      "outputs": [
        {
          "name": "",
          "type": "bytes4"
        }
      ],
      "payable": false,
      "stateMutability": "nonpayable",
      "type": "function"
    }
  ],
  "bytecode": "0x608060405234801561001057600080fd5b506040516020806104eb8339810180604052602081101561003057600080fd5b8101908080519060200190929190505050600073ffffffffffffffffffffffffffffffffffffffff168173ffffffffffffffffffffffffffffffffffffffff161415151561007d57600080fd5b806000806101000a81548173ffffffffffffffffffffffffffffffffffffffff021916908373ffffffffffffffffffffffffffffffffffffffff160217905550655af3107a400060016000600181526020019081526020016000208190555065b5e620f48000600160006002815260200190815260200160002081905550660110d9316ec000600160006003815260200190815260200160002081905550506103c08061012b6000396000f3fe60806040526004361061004c576000357c0100000000000000000000000000000000000000000000000000000000900463ffffffff1680632d296bf114610058578063f23a6e6114610086575b61005660016101b2565b005b6100846004803603602081101561006e57600080fd5b81019080803590602001909291905050506101b2565b005b34801561009257600080fd5b5061015e600480360360a08110156100a957600080fd5b81019080803573ffffffffffffffffffffffffffffffffffffffff169060200190929190803573ffffffffffffffffffffffffffffffffffffffff16906020019092919080359060200190929190803590602001909291908035906020019064010000000081111561011a57600080fd5b82018360208201111561012c57600080fd5b8035906020019184600183028401116401000000008311171561014e57600080fd5b909192939192939050505061032a565b60405180827bffffffffffffffffffffffffffffffffffffffffffffffffffffffff19167bffffffffffffffffffffffffffffffffffffffffffffffffffffffff1916815260200191505060405180910390f35b6000349050600160008381526020019081526020016000205481101580156101ee57506000600160008481526020019081526020016000205414155b15156101f957600080fd5b6000809054906101000a900473ffffffffffffffffffffffffffffffffffffffff1673ffffffffffffffffffffffffffffffffffffffff1663f242432a30338560016040518563ffffffff167c0100000000000000000000000000000000000000000000000000000000028152600401808573ffffffffffffffffffffffffffffffffffffffff1673ffffffffffffffffffffffffffffffffffffffff1681526020018473ffffffffffffffffffffffffffffffffffffffff1673ffffffffffffffffffffffffffffffffffffffff1681526020018381526020018281526020018060200182810382526000815260200160200195505050505050600060405180830381600087803b15801561030e57600080fd5b505af1158015610322573d6000803e3d6000fd5b505050505050565b600060405180807f6f6e45524331313535526563656976656428616464726573732c61646472657381526020017f732c75696e743235362c75696e743235362c6279746573290000000000000000815250603801905060405180910390209050969550505050505056fea165627a7a7230582065218dfd388c01787db7daa7957270d2a96c2a60dfa046d8eb14be3715ea07d10029",
  "source": "pragma solidity ^0.5.0;\n\nimport \"../lib/IERC1155.sol\";\n// contract to purchase tokens\ncontract Marketplace {\n    IERC1155 private _token;\n    //maps a tokenID to a price for the tokenID(ETH for now)\n    mapping (uint256 => uint256) price;\n\n    constructor(IERC1155 token) public {\n        // must have a valid address...\n        require(address(token) != address(0));\n        _token = token;\n        //price in wei thats 1 Quintillion 1^18 or 1,000,000,000,000,000,000\n        price[1] = 100000000000000; // 0.0001 ETH\n        price[2] = 200000000000000; // 0.0002 ETH\n        price[3] = 300000000000000; // 0.0003 ETH\n    }\n    //fallback function if someone sends ETH to this contract...We'll give them token 1.\n    function () external payable {\n        // can only buy one item at a time...\n        buyToken(1);\n    }\n\n    function buyToken(uint256 tokenId) public payable {\n        // get the amount sent\n        uint256 weiAmount = msg.value;\n        // ensure they sent enough\n        require(weiAmount >= price[tokenId] && price[tokenId] != 0);\n        // need to check if there are tokens to purchase(we only minted so many of each!).\n        // if tokens can't be purchased return message saying so...\n        // transfer the token from sender to contract owner...\n        _token.safeTransferFrom(address(this), msg.sender, tokenId, 1, \"\");\n    }\n    // Can't send tokens to contracts that don't support the ERC1155 standard\n    // Check if recipient is a contract. The receiving contract must have this so it can returns a hash which allows the transaction to proceed.\n    // This is a stamp of approval\n    function onERC1155Received(address _operator, address _from, uint256 _id, uint256 _value, bytes calldata _data) external returns(bytes4) {\n        return bytes4(keccak256(\"onERC1155Received(address,address,uint256,uint256,bytes)\"));\n    }\n}",
  "sourcePath": "/Users/joe/Documents/truffle/projects/filipERC1155/contracts/marketplace.sol",
  "compiler": {
    "name": "solc",
    "version": "0.5.0+commit.1d4f565a.Emscripten.clang"
  },
  "schemaVersion": "3.0.9",
  "updatedAt": "2019-08-27T21:32:48.201Z",
  "devdoc": {
    "methods": {}
  },
  "userdoc": {
    "methods": {}
  }
}